:044138000040000043
:108000006F0080006F10C00A97D1FFFF93818185B8
:108010001381017A6F00505E000000000000000034
:1080200097D1FFFF9381018417C5FFFF13058503D7
:108030001386018E3306A64093050000EF10403EE4
:10804000171500001305C52DEF100028EF10C032E2
:10805000032501009305410013060000EF00506561
:108060006F10C0276780000017C5FFFF130585FF4D
:1080700097C7FFFF938707FF638AA7001783FFFF58
:10808000130343F8630403006700030067800000E4
:1080900017C5FFFF130505FD97C5FFFF938585FCF9
:1080A000B385A54093D5254093D7F501B385B70097
:1080B00093D51540638A05001783FFFF130383F4EC
:1080C00063040300670003006780000097C7FFFF99
:1080D00083C747FA63920704130101FF23261100A7
:1080E000EFF09FF89787FFFF9387C7F1638A070038
:1080F000171500001305057C97000000E70000003D
:108100008320C1009307100017C7FFFF2304F7F671
:108110001301010167800000678000009787FFFF5F
:10812000938747EE63860702130101FF97C5FFFFA0
:10813000938585F4171500001305C57723261100D4
:1081400097000000E70000008320C1001301010137
:108150006FF01FF413970501135707019307F018E9
:1081600063ECE7069317060193D707011307701610
:108170006364F706630205028317050063CEF50406
:108180008317250063DAF504831745006346F60478
:10819000831765006352F6048347E01093F71700D6
:1081A000E39C07FE93071000A306F01093D78540C9
:1081B00093F7F70FA300F01093F5F50F9357864050
:1081C0002301B01093F7F70FA301F0101376F60F09
:1081D0002302C0102300D010678000008347E01006
:1081E00093F71700E39C07FE93073000A306F010F7
:1081F0002300A010678000003386C50063040510CB
:1082000013081000831845006318070163CA160F8E
:108210000318650063D6060F0348E01013781800B2
:10822000E31C08FE13082000A30600110318050034
:10823000130E08006354B800138E050003132500C5
:108240009305030063546E0093050E006354C80049
:1082500013080600130603006354680013060800A1
:10826000031865001385080063D4D8001385060041
:108270009306080063540501930605003305B640D4
:108280006350A00813D885401378F80FA30200119B
:1082900093F5F50F2303B0109355864093F5F50F32
:1082A000A303B010135517001376F60F2304C01064
:1082B0003386A6401356864093F5F60F1376F60FD5
:1082C000A304C0103386A5401376F60F2305C01013
:1082D0003306A740B306D6009386F6FF1307F7FFD1
:1082E00093D686403307A74093F6F60F3387E50011
:1082F000A305D0101377F70F2306E0102300F0102A
:10830000678000000345E01013751500E31C05FEAF
:1083100013052000A306A0106FF05FF63386C5009A
:108320006300051093081000031805006318170177
:1083300063C6060F8318250063D2160F8348E0102A
:1083400093F81800E39C08FE93082000A306101180
:108350006354D80013880600831625006354D800A0
:108360009306080003184500930808006354B800FA
:1083700093880500031565009305050063D4A800E4
:10838000938508006354C80013080600130608000C
:1083900063540501130605003305B6406350A00879
:1083A00093581700338516411355854013F8F60F7F
:1083B0001375F50FA302A010330518411375F50FBF
:1083C0002303A01033051741B306D5009386F6FFAB
:1083D0001307F7FF93D686403307174193F6F60F3E
:1083E0003307E800A303D0101377F70F2304E0103E
:1083F00013D785401377F70FA304E01093F5F50F1B
:10840000135786402305B0101377F70FA305E0102C
:108410001376F60F2306C0102300F01067800000CB
:108420000345E01013751500E31C05FE130520003D
:10843000A306A0106FF05FF6130101FB2324810453
:108440002322910423202105232E3103232C4103D1
:10845000232A51032328610323267103130A0700EB
:108460003309C740232611042324810323229103C7
:108470002320A103232EB10113071000130B0500C5
:108480001384050093040600938A0600930B0800EA
:10849000B389B6406396E710139C1900931C19002A
:1084A000130D100063D80900B389D540330C804107
:1084B000130DF0FF930D10006358090033894441F8
:1084C000B30C9041930DF0FF139604019315040132
:1084D00093860B001356064193D5054113050B00F7
:1084E000EFF05FC7B3E729016380070463CC290776
:1084F00013090000330999013304A40163D629014B
:10850000B384B4013309894113960401931504011E
:1085100093860B001356064193D5054113050B00B6
:10852000EFF05FC3E3988AFC8320C1040324810435
:1085300083244104032901048329C103032A8103FD
:10854000832A4103032B0103832BC102032C8102E5
:10855000832C4102032D0102832DC101130101056A
:108560006780000093090000B3898901B384B401D6
:10857000635639013304A401B38999411396040168
:108580009315040193860B001356064193D50541BC
:1085900013050B00EFF01FBCE3189AFC6FF0DFF837
:1085A00013DC170063D40900B389D5406354090074
:1085B00033894441130D100063D48A00130DF0FF7A
:1085C000930D100063549A00930DF0FF63C02907C8
:1085D00013191900B30A394133883A41930C00004A
:1085E000338A8741E3C299F59306040093870B0011
:1085F0001307100013060C00B385444113050B004C
:1086000023260101EFF09FD13304A4010328C10008
:1086100063D80A00B38A2A01938C1C006FF09FFC78
:10862000B38A0A01B384B4016FF01FFF9399190054
:10863000B38A294133882A41930C0000338A874149
:10864000E34499EFB384B40163DA0A02B38A3A01CE
:1086500093870B00130710009386040013060C0089
:10866000B305444113050B0023260101EFF0DFB8E9
:10867000938C1C000328C1006FF09FFCB38A0A0191
:108680003304A4016FF0DFFC130101FA2328210554
:1086900013890700930750002322F10093970501E7
:1086A0002328A1039308100093D70701131D060187
:1086B000232C8104232A910423206105232E710396
:1086C000232C8103232A91032326B103232E110493
:1086D0002326310523244105232251059304050057
:1086E000138B0500930C06002326E100938D0600F2
:1086F000B38BD840130C0000130400002324F100B6
:10870000135D0D01B3878C402328F1008327C1003E
:10871000330F8B40330ABB41B3898C0033839D01F7
:10872000B38ABC41638C070E63086C04131C1400ED
:108730009306030093050F00930709001307100029
:1087400013060C0013850400232A61002328E1018D
:10875000EFF09FAA032F01019307090013071000F0
:1087600093860A0013060C0093050F00138504007E
:10877000EFF09FA80323410183274100130C03005E
:1087800063823705939A1D009307090013071000B1
:108790009386090013860A0093050A0013850400D6
:1087A000EFF09FA59307090013071000B3868C40D4
:1087B00013860A0093050A0013850400EFF0DFA377
:1087C000232231011307140063D20B1893171700EB
:1087D00093871700B38BFB0013040700E3D4EDF27B
:1087E0008320C10503248105832441050329010554
:1087F0008329C104032A8104832A4104032B010431
:10880000832BC103032C8103832C4103032D01031C
:10881000832DC102130101066780000083278100B8
:108820009319040193D909013387370113170701FD
:108830001313030113570741135303419305070013
:10884000130603009306090013850400232EE1009C
:1088500023286100EFF01F90338FA901B38E6D01C3
:10886000939E0E01131F0F0193DE0E41135F0F4104
:1088700093850E0013060F0093060900138504006C
:10888000232AD101232CE101EFF0DF8C8327810023
:108890000323010193060900B3873741939707012A
:1088A00093D707411306030093850700138504003F
:1088B0002328F100EFF01F8A032F8101131A0A0108
:1088C000135A0A4113060F009306090093050A0084
:1088D00013850400EFF01F88832E4101B3093D4149
:1088E0009399090193D9094193850E0093060900D4
:1088F0001386090013850400EFF0DF850327C1010B
:10890000939A0A0193DA0A41930507009306090036
:1089100013860A0013850400EFF0DF83832701012B
:108920009306090013860A00938507001385040047
:10893000EFF05F82930609001386090093050A0091
:1089400013850400EFF01F816FF0DFE73304B441BB
:108950001314140013045400B38B8B00938DFDFF8C
:108960006FF09FE7130101FF930570162326110096
:10897000EF00500FB79700001307A0059387877B80
:10898000636EA70013151500B387A70003950700B2
:108990008320C10013010101678000001307400B11
:1089A0006366A7003305A7406FF0DFFD1307E010F3
:1089B000636EA7001305C5F413151500B387A70050
:1089C000039507003305A0406FF09FFC1307801646
:1089D0003305A7406FF05FFE130101FF930570168A
:1089E00023261100EF001008B79700001307A00519
:1089F00093870770636AA70013151500B387A70054
:108A0000039507006F0000021307400B6362A70283
:108A10003305A74013151500B387A700039507007A
:108A20003305A0408320C1001301010167800000CD
:108A30001307E0106366A7001305C5F46FF09FFDF0
:108A4000130780163305A7406FF01FFB130101FBCE
:108A50002320210503290600232481041304050093
:108A600013050900232611042322910423286103FE
:108A700093040600138B050023267103232481032E
:108A8000232291032320A103232EB101232E31039E
:108A9000232C4103232A5103EFF0DFEC2320A10014
:108AA00013050900EFF05FF303A94400930B0500E1
:108AB00013050900EFF01FEB130C05001305090067
:108AC000EFF09FF183A48400930C0500138504004C
:108AD000EFF05FE9130D050013850400EFF0DFEF01
:108AE0000356CB01B7040100930D05009317460010
:108AF0003304F4001308F0FF9384F4FF1306F6FF29
:108B0000130404FF631006058320C10403248104B9
:108B100083244104032901048329C103032A810317
:108B2000832A4103032B0103832BC102032C8102FF
:108B3000832C4102032D0102832DC1011301010584
:108B40006780000003270B00931726000325010010
:108B50003307F700832A070003274B002326C100B1
:108B60003307F7000329070003278B00930509004B
:108B7000B307F70083A90700EF008067130A050019
:108B80009385090013850B00EF0080663305AA006A
:108B9000135AF541337A9A0093050900330AAA0063
:108BA00013850B00EF00C0641309050003250100C5
:108BB00093850900135A0A41EF0080633305A940E9
:108BC0001359F5413379990093050A003309A90037
:108BD00013050C00EF00C0619309050093850A009E
:108BE00013850C00EF00C0603385A9009359F5414F
:108BF000B3F9990093050A00B389A90013850C0005
:108C0000EF00005F130A050093850A0013050C00AE
:108C1000EF00005E3305AA409357F541B3F7970084
:108C2000B387A70003254B0193D707412324F10005
:108C3000B305F50013150501EF00C05D93D9094197
:108C4000930A05009385090013850D00EF00405A33
:108C5000135909412322A1009305090013050D00B2
:108C6000EF00005903274100032A8B0193850A0076
:108C70003305A7401357F541337797003305A70015
:108C800013550541EF00C056131A0A0193050A0057
:108C9000EF004058938509002320A40013050D0020
:108CA000EF000055930905009305090013850D0099
:108CB000EF0000543385A9001357F541337797002F
:108CC0003305A70093850A0013550541EF00405274
:108CD00093050A00EF000054832781002322A4009B
:108CE00093050A0013950701EF00C0523305A04019
:108CF0002324A400232654011308F0FF0326C100F7
:108D00006FF0DFDF130101FA232E1104232C8104FD
:108D1000232A910423282105232631052324F10049
:108D2000930730001304060013090500239EF50085
:108D3000130641001305010193840600938908007E
:108D40002322E10023260101EFF05FD00317410247
:108D500083160102031641018315010113880900DE
:108D600033079700B386860033069600B3858500E7
:108D70001305090093071000EFF00FEC03174103F0
:108D800083160103031641028315010213880900AB
:108D900033079700B386860033069600B3858500B7
:108DA0001305090093071000EFF00FE903174101C5
:108DB000831601010316410383150103138809007B
:108DC00033079700B386860033069600B385850087
:108DD0001305090093071000EFF00FE68320C1058B
:108DE0000324810583244105032901058329C10446
:108DF0001301010667800000B747000037A7000095
:108E0000B7460000938707001307078C9386060672
:108E100063EED700B7470000938707061387818D5D
:108E200063E0E7026FF0CF9F678000000326070032
:108E3000938747001307470023AEC7FE6FF05FFD1F
:108E400023A00700938747006FF09FFDB7470000FE
:108E50009387070603A8070083A847001307180095
:108E600033350701B306150123A0E70023A2D7007D
:108E70001305100067800000B7470000138707063E
:108E80000326070083264700938707063307C5009C
:108E90003335A7003305D50003A6070083A6470096
:108EA000E3ECA6FE6314D500E368E6FE67800000ED
:108EB000130101F923248106930741002320210790
:108EC000232E3105232C4105232A51052328610532
:108ED00023267105232611062322910623248105CA
:108EE000232291051307010123ACF18A9387818B1B
:108EF00023A2E7001307C10123A4E700130781029F
:108F000023A6E7001307410323A8E700130780F314
:108F10002322E1002328E100232EE100232AE1009F
:108F20002320E1022322E10213073000239EE70001
:108F30001307C0129306800C23AAE7001307100042
:108F40002324D10023260100232CD10023ACE700E9
:108F50003749000093097016130A5004930A500908
:108F6000130B500E930B5013831789069304890635
:108F700063CAF912938717002390F40013050000C9
:108F8000EFF0CFA583D704009308F00F130800007B
:108F90001307000093060008130600089385818BD1
:108FA00013050000EFF01FD6834CC012930450004D
:108FB000130C000893FCFC0F33F78C01938504001D
:108FC0009307F00F3337E000930630001306000CD0
:108FD0001305000093848400EFF00FEB135C1C007A
:108FE000E39C44FD834C401293045005130C00088D
:108FF00093FCFC0F33F78C01938504009307F00F6B
:109000003337E000930630001306000C1305000010
:1090100093848400EFF04FE7135C1C00E39C54FD45
:10902000834CC0119304500A130C000893FCFC0FEE
:1090300033F78C01938504009307F00F3337E0007A
:10904000930630001306000C13050000938484007F
:10905000EFF08FE3135C1C00E39C64FD834C401134
:109060009304500F130C000893FCFC0F33F78C0192
:10907000938504009307F00F3337E0009306300028
:109080001306000C1305000093848400EFF0CFDF7B
:10909000135C1C00E39C74FD13055000EFF0DFDD52
:1090A0006FF09FEC239004006FF05FED6F00000005
:1090B0001301C1F7232411002326210023283100A6
:1090C000232A4100232C5100232E6100232071020A
:1090D00023228102232491022326A1022328B10204
:1090E000232AC102232CD102232EE1022320F104E2
:1090F00023220105232411052326210523283105D8
:10910000232A4105232C5105232E610523207107B5
:1091100023228107232491072326A1072328B107AF
:10912000232AC107232CD107232EE1072320F1098D
:1091300003234001232261000323800023206100D8
:109140001305400103250500B7A7000013172500EC
:1091500093870787B387E70083A70700E7800700A7
:109160000323010023246000832081000321C10028
:109170008321010103224101832281010323C101D3
:109180008323010203244102832481020325C102B7
:109190008325010303264103832681030327C1039B
:1091A0008327010403284104832881040329C1047F
:1091B00083290105032A4105832A8105032BC10563
:1091C000832B0106032C4106832C8106032DC10647
:1091D000832D0107032E4107832E8107032FC1072B
:1091E000832F010813014108730020306F00000035
:1091F000130605001305000093F6150063840600AE
:109200003305C50093D5150013161600E39605FE29
:10921000678000006340050663C6050613860500E7
:10922000930505001305F0FF630C0602930610007A
:10923000637AB6006358C0001316160093961600A2
:10924000E36AB6FE1305000063E6C500B385C540BA
:109250003365D50093D6160013561600E39606FE26
:109260006780000093820000EFF05FFB138505002C
:10927000678002003305A04063D80500B305B04005
:109280006FF0DFF9B305B04093820000EFF01FF9F3
:109290003305A040678002009382000063CA050086
:1092A000634C0500EFF09FF713850500678002000F
:1092B000B305B040E35805FE3305A040EFF01FF6BC
:1092C0003305B04067800200930505009306000057
:1092D00013060000130500006F004022130101FF78
:1092E0002324810023261100970700009387C72DB0
:1092F000130405006386070093050000EF00802C2F
:109300009387818D03A50700832785026384070067
:10931000E780070013050400EFF05FED130101FF84
:1093200097070000938787592324810017040000C2
:10933000130404593304F44023229100232611001E
:109340001354244093840700631C04000324810009
:109350008320C10083244100130101016FE09FD0ED
:109360001304F4FF93172400B387F40083A70700C6
:10937000E78007006FF05FFD130101FF9707000012
:109380009387475323248100170400001304845259
:109390003304F440232291002320210123261100CD
:1093A000135424409304000013890700639284043B
:1093B000EFE05FCB970700009387C74F17040000CB
:1093C0001304C44F3304F4401354244093040000A6
:1093D00013890700639A84028320C100032481005B
:1093E000832441000329010013010101678000006B
:1093F00093972400B307F90083A707009384140010
:10940000E78007006FF09FFA93972400B307F900F5
:1094100083A7070093841400E78007006FF09FFB89
:109420001303F00013070500637EC3029377F70070
:109430006390070A63920508937606FF1376F60099
:10944000B386E6002320B7002322B7002324B70009
:109450002326B70013070701E366D7FE631406004F
:1094600067800000B306C340939626009702000071
:10947000B38656006780C6002307B700A306B7006F
:109480002306B700A305B7002305B700A304B70060
:109490002304B700A303B7002303B700A302B70058
:1094A0002302B700A301B7002301B700A300B70050
:1094B0002300B7006780000093F5F50F93968500B1
:1094C000B3E5D50093960501B3E5D5006FF0DFF65F
:1094D0009396270097020000B386560093820000FF
:1094E000E78006FA93800200938707FF3307F7406F
:1094F0003306F600E378C3F66FF0DFF397B7FFFFAC
:10950000938707B783A70700130E0500639607022A
:109510001387C18297B7FFFF23ACE7B41775FFFF2E
:10952000130545AE93070700630805008327050070
:1095300023AAF18A9307070003A747001308F00145
:109540001305F0FF6340E80663020E0403A88708D2
:10955000630A080493182700B308180123A0C80061
:1095600003230810130610003316E6003363C3000C
:109570002320681023A0D808930620006318DE007B
:109580008326481033E6C6002322C810930617002E
:109590001317270023A2D700B387E70023A4B7003F
:1095A00013050000678000009777FFFF938787A56A
:1095B0006388070017050000130585D66FF0DFD01C
:1095C00067800000130101FD232C4101232A510172
:1095D00023286101232671012326110223248102FD
:1095E0002322910223202103232E310123248101F0
:1095F000130B0500138A050097BAFFFF938A4AA749
:10960000930B100003A40A00630E0400832444009B
:10961000832984081389F4FF93942400B3049400ED
:10962000635A09028320C102032481028324410278
:10963000032901028329C101032A8101832A4101EF
:10964000032B0101832BC100032C810013010103B3
:109650006780000063020A02639809001309F9FF9A
:109660009384C4FF6FF0DFFB93172900B387F900E1
:1096700083A70708E39447FF0327440083A7440018
:109680001307F7FF631E270323222401E38807FC47
:10969000032C4400638A090083A6091033972B0129
:1096A000B376D70063920602E780070003274400E1
:1096B00083A70A00E31887F5E302F4FA6FF09FF43A
:1096C00023A204006FF09FFC93162900B386D900F3
:1096D00083A5060083A649103377D70063180700D7
:1096E00013050B00E78007006FF05FFC1385050092
:1096F000E78007006FF09FFB000000000000000003
:10970000FF7FFA7FEB7FD27FAF7F827F4B7F0A7F25
:10971000C07E6B7E0D7EA47D327DB77C317CA27BCA
:10972000097B677ABB79057946787E77AD76D27505
:10973000EE7400740A730B720371F26FD96EB66D1A
:109740008B6C586B1D6AD9688D673866DC647863EA
:109750000C6299601E5F9C5D125C815AE9584B5700
:10976000A555F95346528C50CD4E074D3B4B6A4997
:109770009347B645D343EC41FF3F0D3E173C1B3AA0
:109780001C3817360F340332F22FDE2DC62BAB29CF
:109790008D276C2547232021F71ECA1C9C1A6C18A4
:1097A00039160514D011990F610D270BED08B2067B
:1097B00077043B020000000000003B027704B20681
:1097C000ED08270B610D990FD011051439166C188F
:1097D0009C1ACA1CF71E202147236C258D27AB2914
:1097E000C62BDE2DF22F03320F3417361C381B3AEE
:1097F000173C0D3EFF3FEC41D343B64593476A49C2
:109800003B4B074DCD4E8C504652F953A5554B5707
:10981000E958815A125C9C5D1E5F99600C62786306
:10982000DC6438668D67D9681D6A586B8B6CB66DC1
:10983000D96EF26F03710B720A730074EE74D275F5
:10984000AD767E7746780579BB79677A097BA27B0E
:10985000317CB77C327DA47D0D7E6B7EC07E0A7F1D
:109860004B7F827FAF7FD27FEB7FFA7FFF7F00004D
:109870004C8E0000AC900000AC900000AC9000005A
:10988000AC900000AC900000AC900000AC900000E8
:10989000AC900000AC900000AC900000AC900000D8
:1098A000AC900000AC900000AC900000AC900000C8
:1098B000A89500001C810000CC8000000000000082
:1098C0000000000000000000000000000000000098
:1098D0000000000000000000000000000000000088
:1098E0000000000000000000000000000000000078
:1098F0000000000000000000000000000000000068
:109900000000000000000000000000000000000057
:109910000000000000000000000000000000000047
:040000030000800871
:00000001FF
